:020000040800F2
:10000000481C0020B563000875630008776300088A
:10001000796300087B6300087D630008000000002E
:10002000000000000000000000000000F95D000872
:100030007F63000800000000A15D000881630008E4
:10004000EB630008EF630008F3630008F763000840
:10005000FB630008FF6300080364000807640008EE
:100060000B6400080F64000813640008176400089C
:100070001B6400081F64000823640008276400084C
:100080002B6400082F6400083364000837640008FC
:100090003B6400083F6400084364000847640008AC
:1000A0004B640008856300084F640008536400082F
:1000B000576400085B6400085F640008636400081C
:1000C000676400086B6400086F64000873640008CC
:1000D000776400087B6400087F640008836400087C
:1000E000876400088B6400088F640008936400082C
:1000F000976400089B6400089F640008A3640008DC
:10010000A7640008AB640008AF640008B36400088B
:10011000B7640008BB640008BF640008C36400083B
:10012000C7640008CB640008CF640008D3640008EB
:10013000D7640008DB640008DF640008E36400089B
:10014000E7640008EB640008EF640008F36400084B
:10015000F7640008FB640008FF64000803650008FA
:10016000076500080B6500080F65000813650008A7
:10017000176500081B6500081F65000800000000E7
:1001800023650008276500082B6500082F65000817
:1001900033650008376500083B6500083F650008C7
:1001A00043650008476500084B6500082DE9F04FDE
:1001B0000FF2A41CA1B0DCE90089CDE900892A9DD9
:1001C000DFF8109C049100248DF843500D944FF0FB
:1001D000FF38824616461F460FE0B3462C461BF8F2
:1001E000011B0498D0470028049000F0A2800D98CD
:1001F000401C641E0D90F2D176193078252808D164
:10020000002100220791089209910A920B910C9209
:100210000DE06A464146304600F0F4FF050001D18A
:100220000D98A1E0D9D50125E6E741F0010116F8C6
:10023000010F2028F9D023280CD02B2804D02D28FA
:1002400005D0302809D076E041F00201EFE741F017
:100250000401ECE741F00801E9E741F01001E6E7AD
:100260000F9209E00F98484505DA00EB800402EB95
:100270004402303A0F92761C3278A2F130000A28FC
:10028000F0D330782E2818BFCDF8388022D116F858
:10029000010F2A2807D138683860761C50F8042BE3
:1002A00038600E9216E02D280CBF761C002000222C
:1002B0000E920AE040B90E9A4A4505DA02EB820432
:1002C00003EB4403303B0E93761C3378A3F13002EA
:1002D0000A2AEFD3ADF8401021A0317800F09CFF3E
:1002E00008B116F8010B8DF842009DF8420068280D
:1002F00004D1307868280AD1622105E06C2804BF57
:1003000030786C2803D171218DF84210761C12A828
:1003100006903A4616F8013B02A9504600F064F8F0
:1003200038B912AA02A9504600F0CAF900287FF590
:1003300064AF404618E02A2892D13A683A6052F8F1
:10034000040B3A6000280F9003D540420F9041F013
:100350000401761C95E7000000000000000000008A
:10036000686A6C747A4C000021B0BDE8F08F622896
:1003700020D0682811D06A2803D06C2827D0712893
:1003800025D10868C01D20F007000860D0E90023CF
:1003900008300860194610467047002A0A680A604B
:1003A000106803D0121D0A6000B217E0121D0A6027
:1003B00080B217E0002A0A680A60106803D0121D94
:1003C0000A6040B20AE0121D0A60C0B20AE0002AC8
:1003D0000A680A60106803D0121D0A60C1177047CE
:1003E000121D0A60002170477CB50D4611461C465F
:1003F0002E69B4F1250200F051811C3A00F086808C
:10040000121F022A40F282800E3A00F00B81521F26
:100410005AD0093A7AD0921E16D0521E35D0521EAA
:10042000022A73D9121F30D0521F00F09A80521E38
:100430004AD0521E00F0E480D21E00F00181921ECC
:1004400042D0D21E40D02FE195F83A406C2C09D012
:100450006869421C6A610A680A6052F8043B0A60D3
:1004600033542BE10A680A6052F8043B0A60009397
:10047000002201924FF0FF332B636A46294600F0B9
:100480009AF9002840F11A8105E195F83A00012215
:10049000FFF76DFFC5E900010023994204DA68699E
:1004A000411C69612D220DE0288F810704D5686900
:1004B000411C69612B2205E0C00722D56869411CF7
:1004C0006961202232541CE095F83A000022FFF7BF
:1004D0004EFFC5E9000195F83800010711D5D5E9AF
:1004E00000230020834208BF82420AD044F020004B
:1004F000782806D1686930213154401C421C6A6159
:100500003454214668693044E86087E00868C01DBB
:1005100020F007000860D0E9002308300860C5E932
:100520000023D5E90001C80F04D06869411C696146
:100530002D220DE0288F810704D56869411C69616F
:100540002B2205E0C00704D56869411C696120229F
:10055000325468693044E8602146284600F03AFA8F
:10056000ACE005F13A02507820B14FF0FF340FF6BD
:10057000343074E01078622808D0682824D06A28C3
:1005800012D06C282ED071280ED02BE00A680A6099
:1005900052F8040B0A6020B94FF0FF340FF61C30FC
:1005A0005DE0E96A017089E00A680A6052F8040BAC
:1005B0000A6020B94FF0FF340FF600304FE0EA6ACE
:1005C000D317C0E9002379E00A680A6052F8040BE7
:1005D0000A6020B94FF0FF340FF6E0203FE0E96AEF
:1005E00001806BE00A680A6052F8040B0A6020B9C7
:1005F0004FF0FF340FF6C42031E0E96A01605DE09E
:100600000A680A6052F8040B0A60002120F0000218
:1006100021F0FF33C5E90023EE607821284600F081
:100620002DF94BE06C2285F83A200B680B6053F8EB
:10063000042B0B6052BB4FF0FF340FF6B4200EE0DA
:1006400095F83A206C2AF0D00868086050F8044BFE
:100650000860EC603CB94FF0FF340FF6782000F0F2
:1006600003FE201A76BD2E6B002E04D5204600F026
:100670001BFE044608E032460021204600F03EFE04
:10068000002814BF041B3446AC6117E0294600F073
:1006900092F8002812D54FF0FF3076BD6869411CF2
:1006A00069612522325409E06969481C6861252284
:1006B0007254210002D0431C6B613454002076BD7B
:1006C0002DE9F0410E4605469046726B7069316A1D
:1006D000B46A121AB069521A716A121AF069521A7F
:1006E000121A96F83800141B41070DD4002C0BDDAC
:1006F0002746B0682021A8470028B06057D0F06A8C
:10070000401C7F1EF062F4D1736942463146284690
:1007100000F0B0FC00284AD1376A002F0ADDB0682B
:100720003021A8470028B06041D0F06A401C7F1EED
:10073000F062F4D1B369F2683146284600F09AFCC1
:10074000A8BB776A002F09DDB0683021A847B060E8
:1007500068B3F06A401C7F1EF062F5D1F068B169A1
:10076000F36942183146284600F084FCF8B9B76AAC
:10077000002F09DDB0683021A847B060B8B1F06A39
:10078000401C7F1EF062F5D196F8380041070BD56A
:10079000002C09DDB0682021A847B06038B1F06AAC
:1007A000401C641EF062F5D10020BDE8F0814FF0DE
:1007B000FF30BDE8F0812DE9F8470D46A3B02F6B5F
:1007C000002F0646904648BF6FF000470FF63C14D6
:1007D00000F0C0FDD4E90023696B4018CDE9012386
:1007E000812828BF4FF0FF3042D20024002F33DD94
:1007F000D8F8001001AA684600F006FD8146B9F15C
:10080000000F38D4D8F8000010B9B9F1010932D47A
:100810004F4521DB6869484481280AD30021696378
:1008200003AA29463046FFF74BFF040014D40020EA
:10083000686103ABD5F814A04A46694603EB0A0089
:1008400000F08EFDCA44C5F814A058F8040B002827
:1008500018BFA7EB0907C9D14CB903AA29463046EE
:10086000FFF72EFF044614B9002068616863204634
:1008700024B0BDE8F0874FF0FF34F8E72DE9FC47DE
:1008800007468C463E69BCF16F0F08BF082405D0AF
:100890004CF02000782814BF0A2410243C25D7E906
:1008A0000023BCF1640F18BFBCF1690F9046994654
:1008B00006D100218B4203DAD8F1000869EB49091F
:1008C0004FF0000AD14508BFD0451FD1386BE8B9B9
:1008D000082C4BD197F83800010747D530203B252D
:1008E00086F83B0042E000280ED597F8380000F06B
:1008F0001400102808D17B6B7969386A5B1A1B1ABF
:100900009A1A002AC8BF3A62BDE8F3878DF800C082
:10091000404649462246E31700F076FD3032D0B219
:100920006D1E3A28019504DB9DF80000A0F15101ED
:100930008A187255404649462246E31700F064FD86
:1009400089468046D14508BFD04503D0F868711963
:100950008842DDD3082C09D197F83800010705D566
:10096000705D302802D06D1E30207055C5F13C02FC
:10097000BA617119F960386B8242B4DA821A3A624C
:100980004FF6EF70398F01403987BDE8F3872DE9C5
:10099000D04306460F4614464FF00008DFF838945F
:1009A00012E0E00707D542464B463046394600F094
:1009B00043FE06460F464046494642464B4600F037
:1009C0003BFE641080468946002CEAD13046394609
:1009D000BDE8D0832DE9F34F054641F020048DB0EA
:1009E000D5E90089612C02AE09D0286B002848BFE8
:1009F000062003D408BF672C01D101202863D5E964
:100A0000002358004015401C0ED119030CD00320C0
:100A1000A8619DF8381061391A2902D20FF2F461E9
:100A200011E00FF2F4610EE059004915491C0FD195
:100A300018030DD10320A8619DF8381061391A29D7
:100A400014D30FF2DC61E868032200F089FCD3E1E3
:100A5000194621F00043B3F5801F10460DD2002740
:100A6000BB4208BFBA42019703D111E00FF2AC615B
:100A7000E9E701AA00F0B2FE0AE0DFF8607307EBD5
:100A80001352DFF85C3301921940DFF858331943F1
:100A9000C5E90001612C0ED1E86830210170821C8B
:100AA000EA609DF8381061290CBF78215821417007
:100AB0006869801C6861D5E900AB2BF00043002019
:100AC0002AF00002834204BF8242002300F05B81CF
:100AD000612C40F0AA80286B002847BF212100919B
:100AE000401C0090009F7F1C404649460022002386
:100AF00000F0ACFED94601998DF8082038BF89F086
:100B00000049091F002FD04601910DF1090040F363
:100B10004981B349DFF8D0B20C91064640464946B8
:100B20000022002300F0AAFE80F03B814800400D27
:100B300000F11C0211D0002A0FDD40F2FF7082424A
:100B400005DB09F0004040EA0B01002013E00C989F
:100B5000014041EA025140460DE029F000430020E7
:100B600028F00002834208BF82420FBF40461C2289
:100B7000404600F09BFE8046894600F035FFFF1F8F
:100B8000002F044609DD00F04DFF02460B464046AB
:100B9000494600F059FF80468946F01D072104E0D0
:100BA00004F00F0200F8012D2411002C01DD491E74
:100BB000F6D5491E5CBF002200F8012DF9D5ECE006
:100BC0000020194602AA0A4400E05B1E12F80149FF
:100BD000491E8442F9D00F2804D10DF10900425C6E
:100BE000521C4254002904D50198001D02AE5B1C22
:100BF0000190591E12D49DF838007218A0F13A07DE
:100C0000147804F130085FFA88F43A2CA8BFB8448D
:100C1000491E02F80189F3D58DF83800286B0028A9
:100C200040F1B080591E2963ACE04046494600229D
:100C3000002300F00BFE019938BF89F0004947F20C
:100C400097504143694A91FBF2F20192D2F10702B7
:100C500004DD40464946FFF79AFE0AE05242002072
:100C60006349FFF794FE02460B464046494600F0B2
:100C70005DFF8046662C286BDFF878B106BF019FC8
:100C80000A3706273F18142FC8BF142730208DF8C5
:100C9000080089460DF1090000E03046002F34DDE0
:100CA00006464046494601F065F801460A4606F107
:100CB000080304200A26B2FBF6F606EB860EA2EB2A
:100CC0004E02303203F8012C0A22B6FBF2F202EB9C
:100CD000820EA6EB4E063036401E03F8026DE9D1B7
:100CE000083F002F03F10806D7DD084601F056F84B
:100CF00002460B464046494600F0A6FE00225B46EF
:100D000000F09AFC80468946CBE70DF10901401AB4
:100D10000DF1090604E00199491E401E0191761C5F
:100D200031783029F7D0662C02D10199491C03E0B3
:100D3000652C0CBF012100212B6BCB189842B8BF4A
:100D4000431E002B1ED4834204DAF05C3528A8BF72
:100D5000392000DA30201946721E02EB010800E04B
:100D60005B1E18F80199491E8145F9D0392802D136
:100D7000705C401C7054002904D50198401C164634
:100D80005B1C0190019800B200901BB29DF83810D6
:100D90003246284600F034F82EE0C61D002F3FF7FB
:100DA000BDAE30460DF10901401A00990346884254
:100DB000C8BF0B46002B0DF109063FF52FAF83424C
:100DC000BFF6FEAE0DF10900C15C07297FF7F8AE52
:100DD0000F20F6E6CBCCCC0C0000244002FCFFFF39
:100DE000FFFF0F800000E03F0000F07FA0860100C1
:100DF0000000F03F84D797410FB0BDE8F08F0000AE
:100E00002DE9F84783B006468A461746984600F013
:100E1000FDF9B8F1000F406A356B90F8009002DCE4
:100E20004FF00108BFA74AF02000BDF93040662806
:100E300008BF641C15D0672840F0848014F1040FAB
:100E4000C0F28680AC4280F2838096F83800641C41
:100E5000010702D4A845B8BF454620B22D1A48BFA5
:100E600000250FFA84FAF068B169BAF1000F25DCA9
:100E70004A1C30234354002D03DC96F83800010748
:100E800003D5F06800F80290521C15EB0A0FB8BFAA
:100E90006C4220B2441941424445B8BFA046B261F9
:100EA00071620FFA88F5F561F068B3692A46394630
:100EB000184400F055FA641BB462C4E022B29045B5
:100EC000084417DA4246394600F04AFAB06940440D
:100ED000B061AAEB0801002D716203DC96F83810AE
:100EE0000A0705D5F16801F80090F069401CF0612F
:100EF000B562A8E0394600F033FAB069002D5044DD
:100F0000A8EB040803DC96F838100A0703D5F1684B
:100F100001F80090401CB0610FFA88F08542F36838
:100F2000B069B8BFA8460FFA88F207EB0A01184467
:100F300000F016FAB1690FFA88F00144B161281A7D
:100F4000706280E0BAF1610F14D14FF0700A16E0C0
:100F5000A84504DA96F838100A0758BF45466D1EB2
:100F600048BF0025BAF1670F14BF4FF0450A4FF094
:100F7000650A04E0BAF1410F08BF4FF0500AB169A9
:100F8000F368481CB061002D17F8012B5A5403DC9C
:100F900096F838100A071BD5F168431CB36101F8B5
:100FA0000090002D14DDA8F101080FFA88F03946F1
:100FB0008542F768B8BFA8460FFA88F2F81800F023
:100FC000CFF9B0690FFA88F108446D1AB061756203
:100FD000F068B1690844002C80F800A003D42B22EB
:100FE0004270811C03E02D2141706442811C00206D
:100FF0006A460AE023460A2493FBF4F404EB8405D2
:10100000A3EB450302F8013B401C24B2002CF1DCA9
:10101000012806DC4AF02002652A04BF302201F8CC
:10102000012B48B9302001F8010B07E0401E1DF8E4
:101030000030303301F8013B0028F7DCF268B0697A
:101040001044091AF16196F8380000F014001028D5
:101050000DD17269B169706A8A18F1698218B06A33
:101060008A188218706B8242BCBF821A326204B046
:10107000BDE8F087F8B505460E4617461C46002029
:1010800074B117F8011BB068A847B06030B1F06ABE
:10109000401CF0620020641EF3D1F2BD4FF0FF301F
:1010A000F2BD00007072696E74665F733A20256E3F
:1010B00020646973616C6C6F776564007072696E2F
:1010C00074663A2062616420256E20617267756DD6
:1010D000656E74007072696E74665F733A20626147
:1010E0006420257320617267756D656E7400000061
:1010F0007072696E74665F733A2062616420256C59
:101100007320617267756D656E74000000000000E9
:10111000000000006E616E004E414E00696E660078
:10112000494E46003000F0B4024610689568131826
:10113000506803EB5004C0071DD54D441BE013F865
:10114000017B05F8017B491EF9D1A0B1B60813F85F
:10115000011B06F00306032E08BF13F8016B01EB19
:1011600006214942801C294405D011F8016B05F87D
:10117000016B401EF9D1A3420ED013F8016B16F09B
:10118000030104BF13F8011BC91C30090F28DAD171
:1011900013F8010B0F30D6E7F0BC02F10C007047DA
:1011A0001B48704770B45368D418042B09DA41B156
:1011B000057804F8015B10F8016B16B15B1C491E41
:1011C000F3E7536070BC704738B514461D4661B1F3
:1011D000FFF7E8FF61686A6B204690476FF00102F5
:1011E000811A02D0491E01D001E003E005E0002190
:1011F000616032BD6FF0010032BD4FF0FF3032BD93
:10120000DA6B1047024BDFE7014BF9E70148704703
:1012100048000020100000200278C9B28A421AB1AA
:101220001CBF10F8012FF9E718BF0020704730B439
:10123000002513E050F8042BD30744BFA9F10103A4
:101240009A18091F042942F8045BFAD213468C0746
:1012500044BF15809B1CC90748BF1D7050F8041B74
:101260000029E7D130BC704780B500B906A0054918
:101270000B681BB122220021984701E000F09BFD82
:10128000222002BD44180020636F6E73747261697E
:101290006E742068616E646C65723A2062616420CD
:1012A0006D6573736167650000F10103810704D008
:1012B00010F8011B820781B1FAD10268A2F1013155
:1012C000914311F0803104BF50F8042FF6E709BABA
:1012D000B1FA81F100EBD100401CC01A7047B1F5A2
:1012E000807F02D34FF0FF307047017001207047BC
:1012F0000078401E8041C043C00F7047C9B28307C9
:1013000006D0521E22D310F8013B9942F7D11FE0BC
:10131000083A13D302F1040241EA012141EA0141F2
:1013200050F8043B121F21BF4B40A3F1013C2CEAB3
:10133000030C1CF0803FF3D0C9B2001F083210F834
:10134000013B521E28BF91EA030FF8D818BF0120B5
:10135000401E704780B5FFF723FF006C02BD000000
:1013600062B38B0708D0521E11F8013B00F8013B15
:1013700000F024808B07F6D1830740F0208000BF67
:10138000103A07D330B4B1E83810103AA0E838105A
:10139000F9D230BC530724BFB1E80810A0E8081008
:1013A00044BF51F8043B40F8043BD20724BF31F856
:1013B000022B20F8022B44BF0B7803707047121FDA
:1013C00017D35B0009D151F8043B20F8023B1B0CFA
:1013D000121F20F8023BF6D20BE051F8043B00F854
:1013E000013B1B0A20F8023B1B0C121F00F8013BBB
:1013F000F3D238BF121D521E24BF11F8013B00F872
:10140000013BF8D870470000BBBBE1B1B2F5803FAB
:1014100080F07E80022A1ED98C46B1FBF2F102FBDD
:1014200011C31B0443EA1043B3FBF2FC02FB1C3361
:1014300080B240EA0343B3FBF2F002FB103240EA11
:101440000C4000237047022A05D98446B0FBF2F015
:1014500002FB10C270474AB105D100F001024908F1
:101460005FEA3000704700220023704700F0A6BCFE
:101470000B000200002100207047904271EB030C2A
:10148000F6D3B3F5803F2FD2F0B5B3FA83F7B1FAB4
:1014900081F4A7F10F0E3D1B5340CEF1200602FA56
:1014A0000EF2F3415340B5F10F0746D80F3C2C44E0
:1014B0004140C4F12006A040F1414140B1FBF3F6A8
:1014C00003FB1611A2FB0645001BA94102D2761EA2
:1014D0008018594180EA010221FA0EF362FA0EF2F5
:1014E00000215A403046F0BD30B4B1FBF3FC03FBA1
:1014F0001C11A2FB0C45001BA94103D2ACF1010C4D
:101500008018594130BC02460B46604600217047A6
:10151000B2F1807F65D3F0B5B2FA82F7B1FA81F407
:10152000C7F10F063D1B22FA06F307F1110EF24137
:1015300020355A40B5F10F07B8D94140C4F1200613
:10154000A040F1414140B1FBF3FC03FB1C11A2FBA5
:101550000C45001BA94103D2BCF1010C8018594174
:101560000F2F12D30F3FC90341EA5041B1FBF3F6ED
:1015700003FB1611A2FB0645D4EBC030A94102D2F1
:10158000761E8018594146EACC3C07B34140C7F16A
:101590002006B840F1414140B1FBF3F603FB1611C0
:1015A000A2FB0645001BA94102D2761E80185941B4
:1015B00080EA010221FA0EF3C7F1200462FA0EF26A
:1015C0000CFA07F05A402CFA04F13043F0BD80EADF
:1015D000010221FA0EF3002162FA0EF260465A402F
:1015E000F0BD8C46B1FBF2F102FB11C31B0243EAD2
:1015F0001063B3FBF2FC02FB1C331B024CEA00201D
:1016000043EA1063B3FBF2FC02FB1C331B024CEAFF
:10161000002043EA1063B3FBF2FC02FB1C331B0205
:101620004CEA002043EA1063B3FBF2FC02FB1C32DD
:101630004CEA002000237047B0B581EA030C0CF09F
:10164000004C40F2FF7515EA11541DBF15EA1357FF
:10165000AC42AF4239E0E41923EA455343F4801326
:10166000C90241F0004141EA505EC7021100A7FBE8
:10167000020200284FF00000EEFB01204FF00001B5
:10168000E3FB072118BF42F0010240180021494145
:10169000E3FB0E01A4F580640F0302D25200404127
:1016A000494154F101046CDD470872F1004250F1E8
:1016B000000051EB0451A1F580115CBF41EA0C011F
:1016C000B0BD4CEA05510020B0BD05EA1357AC424D
:1016D00014BFAF4241E050EA410E1CBF52EA430E34
:1016E00002E061460020B0BD24423C441BD15FEAC9
:1016F000070EF6D0090302BF01460020AEF1140E1A
:10170000B1FA81F7AEEB070401FA07FE0C37C7F117
:10171000200100FA07F7C8404EEA000E23EA4553BD
:1017200043F48013A2E733F00043B3FA83F704BF16
:10173000B2FA82FE77440B3FE41BB7F1200E2FBFB5
:1017400002FA0EF3BB40C7F1200E22FA0EFE38BF9C
:1017500043EA0E03BA40641C82E750EA410E14BF0C
:1017600052EA430E6FF000014FF4001717EB430FDE
:101770008ABF194617EB410FB5E74CEA0551002027
:10178000B0BDD4F10104B4F120070FDAC4F1200791
:10179000520828BF42F0010210FA07F501FA07F7D4
:1017A000E1BF2A43E0403843E1400FE0352C98DCAC
:1017B000C7F1200452EA400220FA07F218BF42F0B3
:1017C000010231FA07F0A1400A43002172F1004200
:1017D00050F1000051EB0C01B0BD000010B51446F3
:1017E00000F002F8226010BDC1F30A5343B14A0071
:1017F00012F5001F28D2A3F2FE32A1EB025170476E
:1018000050EA410C20D001F0004C31EA0C01B1FA51
:1018100081F204BFB0FA80F3D2180B3AB2F1200380
:101820002CBF00FA03F1914041EA0C013EBFC2F126
:10183000200C20FA0CF319439040524240F2FD3341
:10184000D21A01EB03517047002270474FF4001C7D
:101850001CEB410F94BF1CEB430F09E041EA030C62
:1018600050EA4C0C52EA0C0C03D2994208BF904249
:10187000704714BF8B428242704700004FF4001C37
:101880001CEB410F94BF1CEB430F09E041EA030C32
:1018900050EA4C0C52EA0C0C03D28B4208BF824235
:1018A000704714BF9942904270470000124254D4CE
:1018B00040F2FF7C1CEA11530FD0634531D09B18D6
:1018C00063453CBF01EB0251704701F0004141EA22
:1018D0000C510020AFF30080704750EA410320D044
:1018E00001F0004C91EA0C011CD0B1FA81F30B3BE2
:1018F0009A420DD9D21A994051EA0C01C3F1200C39
:1019000020FA0CFC61449840531C40F2FF7CD7E75E
:10191000914041EA0C01C2F1200C20FA0CF319436A
:1019200090407047B0FA80F31533202BE0D3202A83
:10193000EED3203A203B9A4209D9D21A00FA03F199
:1019400041EA0C010020531C40F2FF7CB8E700FA8A
:1019500002F141EA0C0100207047524240F2FF7C44
:101960001CEA11530DD06345DBD0B2EB030C3CBF36
:10197000A1EB025170470CF1010221EA035141F43D
:10198000801150EA410CCCD001F0004C352A27DC04
:1019900030B481EA0C01B2F1200309DAC2F120036C
:1019A000044601FA03F5D0402843D1409C400CE0A6
:1019B000C3F12002450020FA03F418BF44F00104EB
:1019C00021FA03F091400C43002174F1004550F1DD
:1019D000000051EB0C01244230BC7FF47BAF704718
:1019E0006146002076E70000C1F30A5340F2FE3260
:1019F0009B1A14DDD3F120034FEAE17208DDC9021E
:101A000041EA505141F00040D840801850407047A2
:101A100003F2E13010B1D24382F000407047002061
:101A200070470000C11768B14840401AB0FA80F210
:101A30009040D21CC907C2F5846241EA025202EB0F
:101A4000D02140057047000070B44FF0004591EA86
:101A5000030F40F1BD816B40841A71EB030603D282
:101A6000001BB141121973414FF4001C1CEB410FD4
:101A700034BF7CEB430442E00C0DA4EB1356352E2F
:101A80004FDC45EAC323DB0A45EAC121C912B6F19E
:101A900020050DDD63FA05F6EB4086EA03051242E8
:101AA00018BF45F00105C01851F100010CD213E038
:101AB00062FA06F5F2405540F3415A40B340F34014
:101AC0005A408018594107D349085FEA30005FEA5D
:101AD000350528BF45F0010501F58011420875F173
:101AE000004250F1000041EB04514E0016F5001F7A
:101AF00070BC38BF70470020090D090570471CEB0A
:101B0000410F10D252EA43060BD0BCEB410F05D86F
:101B10000C0DAB43661E342EB6DD02E0AB438018DD
:101B2000594170BC704770BC70470000F0B540F27E
:101B3000FF7581EA030C0CF0004C15EA11541DBF2F
:101B400015EA1357AC42AF42E5E0BC41C1F31301C3
:101B5000C3F31303801A994143F4801304D2641E23
:101B60004000494180185941C90241EA5051B1FB36
:101B7000F3F603FB1611A2FB0675D7EBC020A941B3
:101B800002D2761E80185941C90241EA5051B1FB78
:101B9000F3FE03FB1E11A2FB0E75D7EBC020A9417B
:101BA00003D2AEF1010E80185941890241EA9051E9
:101BB000760546EA8E2EB1FBF3F603FB1611A2FB67
:101BC0000675D7EB8020A94102D2761E80185941B4
:101BD000C90241EA50514EEA060EB1FBF3F603FB8F
:101BE0001611A2FB0675D7EBC020A94102D2761EC2
:101BF00080185941C90241EA5051B1FBF3F703FB88
:101C00001711A2FB0735D3EBC020A94167F10007EC
:101C10000CBF004247F0010766F3D5274FEA1E319B
:101C2000B80814F5806412DDBD0775F1004250EB71
:101C30000E5051EB045111F5801F5CBF41EA0C01BD
:101C4000F0BD4CF07F6141F0E0410020F0BDBD07E8
:101C50006D0840EA0E5041F48011D4F10104B4F152
:101C600020060ADAC4F120060200E04001FA06F379
:101C7000E1401843B24015430EE0342C13DCC6F1AA
:101C8000200445EA40056D0820FA06F2154321FAC2
:101C900006F0A1400D43002175F1004250F1000013
:101CA00051EB0C01F0BD00205FEA0C01F0BDCFB993
:101CB00092185B41B3FA83F704BFB2FA82F6BF19F8
:101CC0000B3FB7F120062FBF02FA06F3BB40C7F166
:101CD000200622FA06F638BF3343BA401CB1E41995
:101CE000641E33E77F4231F00041B1FA81F404BF52
:101CF000B0FA80F6A4190B3CB4F120062FBF00FA0D
:101D000006F1A140C4F1200620FA06F638BF31439F
:101D1000A0403C1B1AE7AC421ABF05EA1357AF427A
:101D200012E050EA41061CBF52EA4306BFE750EA00
:101D30004107304661461CBF41EA0551F0BD52EAF9
:101D4000430C08BFC143F0BD00204FF4001616EB52
:101D5000410F98BF16EB430F08BF16EB410F24BF8E
:101D6000C14305E016EB430F0CBF61464CEA055139
:101D7000F0BD0000400D491840EA81200CD2490D09
:101D8000A1F58061491C40F0004005DBD1F11F0145
:101D900054BFC840C017704700207047014648B183
:101DA000B0FA80F18840C91CC1F58461090501EBD6
:101DB000D02140057047012000F0C0B870470000F6
:101DC00070B44FF0004591EA030F7FF545AE6B40CC
:101DD000841A71EB030604D26E40001BB141121944
:101DE00073414FF4001C1CEB410F34BF7CEB4306E6
:101DF00083E00C0DA4EB1356362E00F37C80012EED
:101E000045EAC32341DC43EA525312BFD202920295
:101E10005B08240545EAC12141EA5051D2EBC020BC
:101E2000994125D407D1B0FA80F610FA06F162D0B4
:101E30000020203608E0B1FA81F6B140C6F1200258
:101E400020FA02F21143B0404FEAF474B4EB465466
:101E500034F001064FEA74040AD8D6F50016760D60
:101E600004F00044F04061FA06F25040F14048406E
:101E7000C00A40EA415021F0004128BF5FEA500506
:101E800050F1000044EBD12135E0DB0A45EAC121E5
:101E9000C90AB6F120050EDD42EA0242120CC5F174
:101EA000200603FA06F6EB4042EA06056D42984129
:101EB00061F100010DE062FA06F5F240554063FA67
:101EC00006FC82EA0C02F3405A406D42904161EBFD
:101ED000030111F4801F05D1641E620502D06D005C
:101EE0004041494121F48011430875F1004350F10C
:101EF000000041EB045170BC70471CEB410F15D240
:101F000023F0004352EA43060BD04FEA4C0CBCEBE3
:101F1000410F04D80C0D661E342EB7DDEBE7801A96
:101F2000994150EA410608BF0021E4E708BF1CEBD5
:101F3000430F28BF6FF00001DDE7000080B5AFF36D
:101F40000080024A11001820ABBEFBE72600020009
:101F50002DE9FC47040000F09C81DFF82477DFF8CE
:101F60002C57B868FE6800F00C082078C10606F00F
:101F7000030640F17D81B8F1000F04D0B8F10C0FD9
:101F800008BF012E55D13868810703D5A069002804
:101F900000F07F81396808074EBF39686968090910
:101FA000206A01F0F001814216D200F02EFB0028D9
:101FB00040F06F81386840F0080038603968206A66
:101FC00021F0F001014339607968E06921F47F4133
:101FD00041EA0021796016E0386840F00800386076
:101FE0003968206A21F0F001014339607968E069BD
:101FF00021F47F4141EA00217960206A00F005FB6D
:10200000002840F0468100F07FFABA68DFF88016B9
:10201000C2F30312895CDFF86C2601F01F01C8408F
:102020001060002000F048FB010000F02181BDE8B5
:10203000F687A06998B1396841F00101396000F074
:1020400079FB81463868810700F1018100F072FB5D
:10205000A0EB09000328F5D30320BDE8F687386814
:1020600040084000386000F065FB81463868810711
:1020700040F1FE8000F05EFBA0EB09000328F5D3E1
:10208000EAE76068B0F5803F04D1386840F48030FA
:10209000386011E0B0F5A02F386806D140F48020F8
:1020A0003860396841F4803105E020F480303860D0
:1020B000396821F480213960606868B100F03AFB2A
:1020C00081463868810300F1E78000F033FBA0EB24
:1020D00009006528F5D3BFE700F02CFB814638687E
:1020E000810340F1D98000F025FBA0EB09006528B1
:1020F000F5D3B1E700F01EFB801B0328C0F0F3808E
:10210000AAE7E06880B1396841F48071396000F075
:1021100011FB06463868410500F1D08000F00AFB4B
:10212000801B0328F6D397E7386820F48070386066
:1021300000F000FB06463868410540F1C68000F01B
:10214000F9FA801B0328F6D386E740084000686050
:1021500000F0F0FA06466868810740F1C88000F098
:10216000E9FA801B0328F6D376E70528286806D10C
:1021700040F004002860296841F0010105E04008B2
:1021800040002860296821F004012960A06878B126
:1021900000F0D0FA824641F289392868810700F1BF
:1021A000DA8000F0C7FAA0EB0A004845F5D353E700
:1021B00000F0C0FA824641F289392868810740F16F
:1021C000CA8000F0B7FAA0EB0A004845F5D343E710
:1021D00000F0B0FA801B0328C0F0D0803CE7400834
:1021E0004000A86000F0A6FA0646A868810740F102
:1021F000C98000F09FFA801B0328F6D32CE700F07B
:1022000099FA401B0328C0F0CD8025E700F092FA30
:10221000001B0328C0F0EB801EE7396811F0205F37
:1022200003D1F86880088000F860F968DFF864047A
:102230000140F96000F07EFA04463868810140F1FF
:10224000DA8000F077FA001B0328F6D304E7386839
:1022500040F0080038603968206A21F0F00101433D
:1022600039607968E06921F47F4141EA00217960B1
:102270002078C10710D5B8F1080F05D0B8F10C0FC0
:1022800008BF032E7FF4FDAE3868810304D5606873
:1022900010B90120BDE8F6872078810715D5B8F17F
:1022A000040F05D0B8F10C0F08BF022E7FF429AF40
:1022B0003868410502D5E0680028EAD078682169CD
:1022C00020F0FE4040EA01607860207801070ED5DA
:1022D0006069002868683FF438AF40F0010068602A
:1022E00000F028FA0646686881077FF503AF20787A
:1022F000410735D5B86D0026C10009D4B86D40F04E
:102300008050B8650126B86D00F0805000900098AC
:10231000DFF88493D9F80000C10513D4D9F8000080
:1023200040F48070C9F8000000F004FA8246D9F841
:102330000000C10506D400F0FDF9A0EB0A00032857
:10234000F5D389E6A06801287FF40FAF286840F034
:10235000010028601AE71EB1B86D20F08050B86502
:10236000207881060ED5606A0028A8683FF437AF50
:1023700040F00100A86000F0DDF90646A86881077A
:102380007FF526AFA06AB0B3B8F10C0F3FF481AF70
:102390000228386820F0807038607FF43EAF00F08B
:1023A000C9F90546386881013FF529AF206B616B9B
:1023B000401E090241EA0011E26BE06A5208014343
:1023C000206C521E400841EA4251401E41EA4061E1
:1023D000A06B41EAC061F960396841F080713960F1
:1023E000F86840F08070F86000F0A4F9044638689E
:1023F00081017FF50BAF0020BDE8F6872DE9F8439A
:10240000040088467DD0DFF89462306800F0070051
:10241000404509D23168C90848EAC10131603068D5
:1024200000F0070040456CD12078DFF85452C10716
:102430004FD56068032802D129688A0108E0022884
:1024400002D129688A0303E00028296802D18A079B
:1024500002D456E04A0554D5A968890840EA8100AB
:10246000A86041F2893900F065F90746A8686168FB
:1024700000F00C00B0EB810F2BD000F05BF9C01B1B
:102480004845F3D30320BDE8F2832078410705D502
:10249000AA68E06822F4E0620243AA602178080793
:1024A00006D5A968206921F4605141EAC001A960FC
:1024B00000F02AF8AA687649C2F30312895C714ACF
:1024C00001F01F01C84010600020BDE8F24300F099
:1024D000F3B82078810705D5AA68A06822F0F00239
:1024E0000243AA60316801F007018845CDD2306807
:1024F000C00848EAC0003060316801F0070141457A
:10250000C3D00120BDE8F28310B45D4A9068D4685E
:102510000023002110F00C0004F0030403D00C2869
:1025200012D1012C1AD113681C0704D4564B1C6815
:10253000C4F3032302E01368C3F30313594C54F8A4
:10254000233048B919462AE0042808BF564926D046
:10255000082824D1554922E00C2820D1D168D06820
:10256000C0F30210401C01F00301022902D003292C
:1025700004D007E04C49B1FBF0F105E04B49B1FB59
:10258000F0F101E0B3FBF0F1D068C0F30620414365
:10259000D068C0F34160401C4000B1FBF0F110BCBA
:1025A0000846704737480068704736483C4A00681C
:1025B00013683F49C3F3022206E03248384A0068F4
:1025C00013683B49C3F3C222895C01F01F01C84074
:1025D00070470F220260324A136803F0030343601E
:1025E000D2F800C00CF0F00CC0F808C0136803F477
:1025F000E063C3601268D20802F4E0620261274817
:10260000026802F007020A6070477CB5294E054651
:1026100030680024C10002D500F092F80EE0306866
:1026200040F080503060316801F080510091009896
:1026300000F086F8316821F080513160B0F5007FFC
:1026400004D1802D0CD9A12D09D304E0802D88BFA1
:10265000032405D801D1022402E0702D00D1012409
:102660000E480168C90844EAC1010160006800F031
:102670000700A04201D0012076BD002076BD0000F9
:10268000001002400C000020941002409010024004
:1026900094620008FFFFEEFE007000400020024040
:1026A00008100240A46200080024F40000127A001E
:1026B000DC6300085810024030B5014687B00022A4
:1026C000192000F09EF8192000F0C4F81548164CA7
:1026D0000168164D41F40061016001A9006800F431
:1026E00000600090009802A8FFF773FFFFF765FFF6
:1026F0000F492160A0FB0553D80C401E40F2E73281
:1027000060600021E2602161A160204600F0D8F8FD
:1027100020B9204600F0E3F807B030BD012007B033
:1027200030BD000060100240F417002006BD37865F
:10273000002C014001480068704700BF401800208D
:10274000DFF89400006800F4C060704730B4DFF830
:102750008810B0F5007F086800F4C0601BD1B0F5A8
:10276000007F21D00868DFF87420DFF8745020F46F
:10277000C06040F400700860322013684343A3FB3C
:102780000554E00C401C4A69530510D5002818BFB9
:10279000401EF8D10BE0B0F5806F05D0086820F43A
:1027A000C06040F480600860002030BC7047486919
:1027B0004105F9D530BC03207047DFF8280006E05A
:1027C000DFF82000016841F4007101607047016882
:1027D00041F4806101607047007000400C000020EF
:1027E00006BD3786047000402E4B19684FF6FF0275
:1027F0000002114000F4E06008432B4908431860D0
:10280000704730B4274B1C68C4F30223C3F107049C
:10281000052C28BF04241D1D072D34BF0023DB1EFB
:10282000012505FA04F4641E2140994005FA03F3DA
:102830005B1E1A4011430901020007D51B4A00F034
:102840000F00104400F8041C30BC7047184B19549A
:1028500030BC7047012200F01F01164BFFE78A4091
:10286000400943F820207047401EB0F1807F01D31B
:10287000012070471049114A48600023F020107071
:102880008B60072008600020704704280A4904D1A3
:10289000086840F00400086070470A6822F00402EB
:1028A0000A6070470CED00E00000FA0518ED00E04A
:1028B00000E400E000E100E010E000E023ED00E0D3
:1028C00038B5040001D1012032BD04F13C0568781F
:1028D00020B900212970204600F048F90FE0006877
:1028E000C16841F00101C1608268DFF834100A401C
:1028F000062A1EBF82681140B1F5803F09E0022020
:102900006870211D206800F0BFF801206870002069
:1029100032BD03D0016841F0010101600020704721
:102920000700010010B50446206801698A0716D522
:10293000C1688A0713D56FF0020101610122227775
:10294000806910F0030F204602D000F010F904E077
:1029500000F00EF9204600F00CF9002020772068E6
:1029600001694A0716D5C1684A0713D56FF00401FB
:10297000016102222277806910F4407F204602D054
:1029800000F0F5F804E000F0F3F8204600F0F1F86C
:1029900000202077206801690A0716D5C1680A0758
:1029A00013D56FF00801016104222277C06910F08D
:1029B000030F204602D000F0DAF804E000F0D8F867
:1029C000204600F0D6F80020207720680169CA066A
:1029D00016D5C168CA0613D56FF01001016108222F
:1029E0002277C06910F4407F204602D000F0BFF883
:1029F00004E000F0BDF8204600F0BBF8002020778E
:102A000020680169CA0708D5C168CA0705D56FF0F3
:102A100001010161204600F0C5FA206801690A063B
:102A200008D5C1680A0605D56FF08001016120460E
:102A300000F04EFB20680169CA0508D5C1680A0686
:102A400005D56FF480710161204600F042FB2068DB
:102A500001694A0608D5C1684A0605D56FF04001EC
:102A60000161204600F036FB206801698A060AD51C
:102A7000C1688A0607D56FF0200101612046BDE8D4
:102A8000104000F028BB10BD30B4DFF8C03004683F
:102A9000984218BFB0F1804F0FD0DFF8B4209042B9
:102AA0001CBFDFF8B050A84207D0DFF8AC2090423E
:102AB0001CBFDFF8A850A84213D14A6824F0700464
:102AC0001443984218BFB0F1804F1AD0DFF880202D
:102AD00090421FBFDFF87C50A842DFF87C20904274
:102AE0000FD0DFF87850A8421CBFDFF87420904266
:102AF00007D0DFF87050A8421CBFDFF86C2090426E
:102B000003D1CA6824F4407414434A6924F0800451
:102B10001443046098428C68C4621CBFDFF83C30E8
:102B200098420A6882620AD0DFF8342090421FBFC0
:102B3000DFF830309842DFF83020904201D1096947
:102B400001630122426130BC70470000002C01404B
:102B50000004004000080040000C00400034014028
:102B60000040014000440140004801407047704768
:102B7000704770472DE9F84189B000F0ADFA00F0D8
:102B8000DCF8DFF83004DFF83044016841F08051B0
:102B90000160006800F080500090009800F034F967
:102BA00004F188004FF0A04101600622002142603C
:102BB000416100220121C161026202230021012240
:102BC000C3608361416282620163C26200F094FA71
:102BD00000B1FEE704F59265DFF8E003DFF8E013EB
:102BE000A867E96704F5A266002030600121B060A3
:102BF000F06030617061B061716004F5A1673846C2
:102C000000F0E0FA00B1FEE70021384600F0D2FD06
:102C100000B1FEE70021384600F0E9FD00B1FEE713
:102C2000DFF8A003DFF8A013016000220C214FF4AD
:102C3000E1388260C260026141618261C261026208
:102C40004262C0F8048000F0FBFD00B1FEE7DF48FF
:102C5000286000210C206861A960E9602961A961F0
:102C6000E96129626962C5F80480284600F0E8FD40
:102C700000B1FEE7D64860624FF48271A162002085
:102C8000E0624FF470612163022060630121A1635F
:102C90004FF40070E06300212164A16400206064AF
:102CA000E06407216065A065216504F1240001F05E
:102CB00081F800B1FEE7C7482060002101202062B2
:102CC000A1806161A161204601F0C8F800B1FEE772
:102CD000CAA001F001F9C82001F012F9CBA001F05F
:102CE000FBF840F6FF70022103AA029001910092C6
:102CF000022302225421384600F070FB014600BF37
:102D0000C5A001F0E9F801F00BF9C0B220B101460D
:102D1000C8A001F0E1F802E0D2A001F0DDF80FF266
:102D20009C3191E8BC0004A8002180E8BC0001F0BF
:102D3000C6FA706401F0BEFAFEE700B5B9B001F062
:102D4000E7FAA548016821F01801016014220592F4
:102D50000121602207910B910D92002101220C911B
:102D600010921192022128220F9112921391149124
:102D7000159105A8FFF7ECF800B1FEE703210191DA
:102D80000F204FF480610090002203910292049280
:102D900004216846FFF732FB00B1FEE700222492CF
:102DA00025922A9242F2430101221691179218921B
:102DB0004FF0806118223291199202214FF4801253
:102DC0001A911B911C911D9216A801F0A9FA00B14D
:102DD000FEE74FF40070FFF7B9FC00B1FEE7FFF724
:102DE000E1FB7E4AA0FB0221480AFFF73DFD0420DB
:102DF000FFF74BFD01F049FC00220F214FF0FF309F
:102E0000FFF7FFFC39B000BD70B57548754C764DC5
:102E1000764E86B0016841F004010160026802F05C
:102E2000040205920599026842F08002026003687C
:102E300003F0800305930599026842F001020260E5
:102E4000036803F0010305930599026842F002024A
:102E50000260036803F0020305930599026842F0DB
:102E600008020260036803F00803059305990268ED
:102E700042F040020260006800F0400005900598B2
:102E8000FFF79EFC00224FF48141204601F0F1FD46
:102E900000224FF48041284601F0EBFD0022402142
:102EA000304601F0E6FD4FF4005051490090019189
:102EB0000022029269464F4801F0F8FC4FF481412C
:102EC000009101220021029103910192694620465E
:102ED00001F0ECFC4FF480410091012200210291AD
:102EE000039101926946284601F0E0FC2020002170
:102EF0000090019102913046694601F0D7FC4021D3
:102F0000009101220021029103910192694630460D
:102F100001F0CCFC02210191002202924FF4C0701A
:102F2000032100900391082204926946304601F083
:102F3000BDFC06B070BD01B50A23012269462148D7
:102F400000F0B2FC009802BDF8B500240FF2501555
:102F50004EA6244F00228021384601F08AFD01222E
:102F60004FF48041384601F084FD4FF4FA7001F0CF
:102F7000BEF901228021384601F07BFD00224FF48A
:102F80008041384601F075FD4FF4FA7001F0AFF959
:102F9000012001F0ACF922463146284600F09CFFA2
:102FA000641CD7E700681449884208BF01F07ABD65
:102FB0007047000058100240A80C00200054004048
:102FC000471330002C170020003801400044004017
:102FD000003001400030024090100240986E128391
:102FE0004C10024000040048000C00480018004843
:102FF0000000111000080048002C014050726520AC
:1030000053746172742E2E2E0D0A00005374617277
:10301000742E2E2E0D0A000048414C5F4932435F4A
:103020004D656D5F52656164207265743D25640D68
:103030000A000000696E69745F6C6570746F6E5F82
:10304000636F6D6D616E645F696E746572666163F6
:1030500065206661696C65642C207265743D256429
:103060000D0A0000696E69745F6C6570746F6E5F45
:10307000636F6D6D616E645F696E746572666163C6
:103080006520646F6E650D0A000000005374617264
:103090007444656661756C745461736B0000000064
:1030A00025732C2025642C20666F72207072696E47
:1030B000746620746573740D0A000000C463000810
:1030C000492F000800000000000000008000000000
:1030D0007047704770477047032010B5FFF784FBB7
:1030E0000020FFF7E9FA0024002814BF012401F0B2
:1030F000E1FC204610BD000038B504008AB008BFCE
:1031000001205CD004F56F75687820B90021297022
:10311000204601F0A3FD03206870206801F024FE22
:1031200083B0211D68463422FEF72AF90EBC2068C0
:1031300001F0EEFD2068002101F01CFE00200023BC
:10314000C0EBC00104EB81013C310870C880012252
:10315000401C0F284A70CB708B60CB604B61EFD363
:103160000020C0EBC00104EB810101F5FE71087085
:10317000401C0F284B70CB708B60CB604B61F0D341
:1031800083B0211D68463422FEF7FAF80EBC206891
:1031900001F004FE002084F8380001216970606AA3
:1031A000012804BF204601F0C3FEA06A012804BF25
:1031B000204601F0D0FE206801F093FE00200BB005
:1031C00030BD000038B5040001D1012032BD04F14A
:1031D0004005687820B900212970204601F0BEFC26
:1031E000242068702068016849084900016060680F
:1031F000216820F0706008612068816821F4004136
:103200008160E06821680128A0680CBF40F400409C
:1032100040F404408860E068022803D120684FF43D
:10322000006141602068416841F0007141F4004153
:1032300041602068C16821F40041C1606069216972
:10324000A2690143206841EA0221C160206AE16964
:103250002268014311602068016841F001010160AA
:1032600000206860202169702063A87032BD2DE9BC
:10327000F843054605F1400788467878202814462B
:10328000994672D1397801296FD001203870FFF743
:1032900051FA06460096192301224FF400412846B0
:1032A00000F0BEF9002868D1212078701021B97093
:1032B000002078606C62A5F82A906863089C698D8C
:1032C000DFF81001B1F5807F05D3FF222A85009039
:1032D0004FF0807305E06A8D2A8500904FF00073EF
:1032E000D2B24146284600F04CFA08E0FF232B8575
:1032F00043681A401143DFF8E02011434160688DB4
:10330000002833D032462146284600F0B7F900287D
:1033100033D1686A2A6801789162686A411C6962DF
:10332000688D411E6985288D411E2985688D00287C
:10333000E5D089B20029E2D1286881690A061DD446
:1033400014F1010FF8D0FFF7F5F9801B844201D387
:10335000002CF1D1786840F020007860202179704D
:103360000020B870387008E023E01CE021463246A7
:10337000284600F0AAF90028F6D017E06B8DDFF898
:103380000822B3F5807FC8F30901AFD26B8D2B857E
:10339000DBB2D0F804C002EA0C02114341EA034157
:1033A00041F00071AAE70220BDE8F2830120BDE8E8
:1033B000F28329682020C8612968DFF8D0014A68B3
:1033C00002404A60202179700020B8703870BDE852
:1033D000F2830000002000800000FF012DE9FE4F75
:1033E000054605F1400688467078202892469B469F
:1033F00040F0A7800C9C002C1CBFDDF83490B9F184
:10340000000F03D14FF40071716097E0307801280C
:1034100000F0978001213170FFF78CF90746009783
:10342000192301224FF40041284600F0F9F8002842
:1034300040F08480222070704021B17000207060C4
:103440006C62A5F82A90686301975B460E9900911B
:1034500052464146284600F09FF810B100203070D7
:103460006CE0698DDFF82801B1F5807F21D3FF2260
:103470002A8500904FF080734146284600F081F97C
:103480000E9C286881694A071AD414F1010FF8D0FC
:10349000FFF750F9C01B844201D3002CF1D17068B2
:1034A00040F020007060202171700020B0703070FA
:1034B00044E06A8D2A8500904FF00073D2B2DBE7BA
:1034C000406A696A0870686A421C288D6A62411EF7
:1034D0002985688D421E6A85688D30B389B221BB0B
:1034E000286881690A062ED414F1010FF8D0FFF77D
:1034F00021F9C01B844201D3002CF1D1706840F047
:1035000020007060202171700020B070307015E0D4
:103510006B8D2B85DBB2D0F804C002EA0C0211439C
:1035200041EA034141F000714160688D0028A8D153
:1035300021463A46284600F0C8F808B101201FE0AD
:1035400011E002201CE06B8D0F4AB3F5807FC8F3B9
:103550000901DDD3FF232B8543681A401143DFF8AF
:1035600034201143E0E729682020C8612968074812
:103570004A6802404A60202171700020B0703070AB
:1035800003B0BDE8F08F0000009C00FC00E800FEE6
:10359000002400800000FF012DE9FC411746DDF802
:1035A0002080099EDFF8002200921D460446002379
:1035B000EAB200F0E6F832464146204600F05EF8F6
:1035C00050B9012D09D02168380A88623246414637
:1035D000204600F053F800B108E02068FFB287628F
:1035E000009643460022402103E000000120BDE890
:1035F000F681204600F014F8401E8041C043C00F01
:10360000BDE8F681006881698A0744BF00218162B4
:103610008169CA0703D4816941F001018161704762
:103620002DE9F041069F05460E4690461C46286847
:1036300081693140B1420CBF01200020404517D1C3
:1036400014F1010FF3D0FFF775F8C01B844201D3CA
:10365000002CECD105F140002022416841F020010E
:10366000416042700021817001700120BDE8F0814D
:1036700001E0104308600020BDE8F08170B5054608
:103680000C4616462868816988071CD432462146B4
:10369000284600F03EF8A0B914F1010FF2D0FFF770
:1036A00049F8801B844201D3002CEBD105F1400086
:1036B0002022416841F02001416042700021817068
:1036C0000170012070BD002070BD70B505460C462C
:1036D000164628688169880619D43246214628464C
:1036E00000F017F888B9FFF725F8801B844201D352
:1036F000002CEED105F140002022416841F020016C
:1037000041604270002181700170012070BD002075
:1037100070BD70B505460C4628688169C806164616
:103720001AD5286881698A0618D414F1010FF8D0D7
:10373000FFF700F8801B844201D3002CF1D105F182
:103740004000416841F02001416020224270002188
:1037500081700170012070BD002070BD1021C16119
:1037600020202A68D0612846FFF74CFF29680F48BF
:103770004A68024005F140004A60416841F0040196
:10378000E2E770B40068039C4568094E46EA545667
:10379000B543C1F30901294341EA024119432143D9
:1037A000416070BC704700000020008000E800FE0F
:1037B000FF63FF0330B400F140025378202B15D192
:1037C0001478012C12D00123137024245470036840
:1037D0001D686D086D001D6003681C6824F480542A
:1037E0001C6003681D68294319601DE019E030B4AE
:1037F00000F140025378202B13D11478012C10D003
:10380000012313702424547003681D686D086D0033
:103810001D6003681C6824F4706444EA01241C6081
:1038200002E030BC022070470068016841F00101ED
:1038300001602020507000211170002030BC7047C2
:1038400038B5040014D004F17005697821B900205E
:103850002870204601F0C6F92421697020680268AA
:10386000520852000260204600F092F8012801D16F
:10387000012032BD606A10B1204600F0F9F92068DD
:10388000416821F4904141602068816821F02A015B
:10389000FFE781602068016841F001010160204676
:1038A000BDE8324000F047BA2DE9F047054605F182
:1038B00070061446707820289A465ED15FEA0108A7
:1038C00014BF002C012059D03078012855D0012197
:1038D0003170002070602122727005F15007FEF7F0
:1038E00029FF3C8081467C8012E018F8010B088596
:1038F0000BE0A868B0F5805F04BF28690028F4D108
:1039000038F8022BC2F308020A857888411E7980B4
:10391000788880B12968C8690206EAD41AF1010FD3
:10392000F8D0BAF1000F16D0FEF704FFA0EB0900A3
:103930008245EFD20FE02968C869410620D41AF108
:10394000010FF8D0BAF1000F05D0FEF7F3FEA0EB9F
:1039500009008245EFD22868016821F4D071016026
:103960002868816849084900816020207070B07023
:10397000002030700320BDE8F0870220BDE8F0870A
:1039800020207070002131700020BDE8F087000019
:10399000F8B50446AA4822681368A1680340206964
:1039A0000B4361690343E0690B4303431360102732
:1039B0005168E06821F44051014351600026002520
:1039C000A369A0498A421CBF206A0343906820F47F
:1039D000306003439C489360824222D19B4B18681D
:1039E00000F0030003284CD8DFE800F0023A294A2F
:1039F0000127E069B0F5004F40F0E480082F00F2A5
:103A0000D380DFE807F005B2BBD1C0D1D1D1C90066
:103A1000FEF7CBFD61684A0802EB4002B2FBF1F60B
:103A2000C0E08B4882420CD1884B186810F00C0023
:103A300062D0042814D0082801D00C280EE00227F8
:103A40001FE0844882420DD1804B186810F030008E
:103A500052D0102804D02028F1D0302810D010E007
:103A600004270EE07C48824225D1784B186810F07C
:103A7000C00041D04028F3D08028E0D0C02800D139
:103A800008278A42B5D1380006D0022F36D0042F3D
:103A900036D0082F37D0CDE0FEF787FD002800F0A4
:103AA000CA80626802EB42018842C0F0C3801303FF
:103AB00083422BD2BEE0694882420DD1634B186825
:103AC00010F4407018D0B0F5807FC9D0B0F5007FF9
:103AD000B5D0B0F5407FC1E78A42D2D15B480368D8
:103AE00013F4406308D0B3F5806FB9D0B3F5006F1D
:103AF000A5D0B3F5406FB1E70027C2E75848D0E73B
:103B0000FEF702FDCAE74FF40040CAE737B1022FC3
:103B10000DD0042F11D0082F1CD021E0FEF745FD59
:103B20006268010E560816EB002079410DE04D4900
:103B300011EB520045EB050107E0FEF7E5FC62687A
:103B4000010E560816EB002069410023FDF75CFCCE
:103B5000064606E0530803F50003B3FBF2F600E067
:103B60000125A6F5407040495FE0FEF726FD61683B
:103B70004A0802EB4002B2FBF1F613E060683B49F1
:103B800001EB50010CE0FEF7BFFC61684A0802EB54
:103B90004002B2FBF1F605E06068410801F58031B2
:103BA000B1FBF0F6B6B200E001254FF6F071A6F1D8
:103BB000100088423ED23140C6F3420001432068E3
:103BC000C16038E0082F2BD8DFE807F0050D152A73
:103BD0001A2A2A2A2200FEF7E8FC616800EB51004D
:103BE000B0FBF1F61AE0FEF7E8FC616800EB51006B
:103BF000B0FBF1F612E06068194901EB50010BE0EF
:103C0000FEF782FC616800EB5100B0FBF1F605E0C5
:103C10006068410801F50041B1FBF0F6B6B200E082
:103C20000125A6F110004FF6F071884202D22268F9
:103C3000D66000E001250020206660662846F2BDBF
:103C4000F369FFEF00800040003801408810024017
:103C50000044004000480040004C0040005000403C
:103C60000024F400000024F400FD0F000048E801E7
:103C700090F82410CA0706D502685368816A23F4B5
:103C800000330B43536090F824108A0706D502686E
:103C90005368C16A23F480330B43536090F82410B7
:103CA0004A0706D502685368016B23F480230B434F
:103CB000536090F824100A0706D502685368416BD8
:103CC00023F400430B43536090F82410CA0606D532
:103CD00002689368816B23F480530B43936090F8E0
:103CE00024108A0606D502689368C16B23F400533A
:103CF0000B43936090F824104A0610D5026853686D
:103D0000016C23F480130B435360036CB3F5801FE5
:103D100005D15368416C23F4C0030B43536090F802
:103D200024100A0606D501684A68806C22F4002235
:103D300002434A60704770B5054605F170040020E3
:103D40006060FEF7F7FC0646286801680A0721D57F
:103D50002868C16988021DD4FEF7ECFC801BB0F115
:103D6000007FF5D305E0FEF7E5FC801BB0F1007F96
:103D700014D32868016821F4D07101602868816833
:103D800049084900816020206070A07000202070E8
:103D9000032070BD286801684A0703D52868C169F7
:103DA0004802E0D520216170A1700020002121701F
:103DB00070BD000070B5040001D1012070BD00206D
:103DC000A06204F15C05687820B9002129702046C2
:103DD00000F0E6FE022068702068016821F04001D2
:103DE0000160E168B1F5E06F04D90022B1F5706FB0
:103DF00003D104E04FF4805201D00020A062206B78
:103E000030B9B1F5E06F87BF022020630121216343
:103E10006368A06821692668034360690B43A16950
:103E2000034301F40071E0690B43216A0343A06A74
:103E30000B4303433360A369606A616B1B0C03F09F
:103E400004030343E0680B4303431A4323685A60A7
:103E50000021696001206870002070BD10B5040069
:103E600020D0607F20B900212177204600F065FE38
:103E700002216177207970B9206816494161206874
:103E8000816821F018018160607968B920684FF07D
:103E9000FF3101610BE0E268A168204601F066F89D
:103EA0000028F1D0012010BD216820690861216837
:103EB0008A68606922F0600202438A6021688A6829
:103EC000A06922F0800202438A600121617700200C
:103ED00010BD0000B71DC1040EB4C0B5024603A852
:103EE00000210190009101AB0121044878440C307D
:103EF000FCF75CF906BC5DF810FB00BF95240000E0
:103F000038B50446FEF716FC14F1010F054618BF3C
:103F1000641CFEF70FFC401BA042FAD331BD000029
:103F200070B52DED028B6B4C88B023464FF4C872F0
:103F30000021002001F06BF8010004D00FF21830CE
:103F4000FFF7CAFF0DE0A1790FF23430FFF7C4FF8D
:103F50006946204601F075F830B101469FA0FFF791
:103F6000BBFF08B00120ABE00FF2C820FFF7B4FFA1
:103F70009DF802309DF801209DF80010B3A0FFF7D6
:103F8000ABFF6946204601F072F818B14FEA000114
:103F900057A0E4E763A0FFF79FFF00254AA61DF89E
:103FA00005103046FFF798FF6D1C202DF7DB47A06A
:103FB000FFF792FF6946204601F04EF810B1014626
:103FC00060A0CCE70FF2A810FFF786FFDDE9002321
:103FD0006EA0FFF781FF6946204601F050F818B146
:103FE0004FEA00016CA0BAE774A0FFF775FF0099D3
:103FF00078A0FFF771FF6946204601F081F800289C
:104000007FF4ABAF0FF2F41082A5FFF765FF9DEDD3
:10401000000A9DED001ABDEEC00AF8EEC00A9FED41
:104020002C8A31EE601A21EE081ABDEEC11A11EE8B
:10403000102A10EE101A2846FFF74EFF6946204658
:1040400001F025F8B0F1000F7FF487AF73A0FFF700
:1040500043FF9DED000A9DED001ABDEEC00AF8EE8B
:10406000C00A31EE601A21EE081ABDEEC11A11EE37
:10407000102A10EE101A2846FFF72EFF6946204638
:1040800001F07EF880B9062213A1684601F09BF882
:1040900050B1082213A1684601F095F8401E8041F6
:1040A000C043C00F207201E000212172022120468E
:1040B00001F080F80521204601F073F808B00020D7
:1040C000BDEC028B70BD0000257820000D0A0000B9
:1040D0000000C842341800203530302D3036787852
:1040E000000000003530302D30373633000000003E
:1040F000436F756C64206E6F7420717565727920E2
:1041000063616D65726120637573746F6D65722094
:1041100073657269616C206E756D62657221202510
:10412000640D0A0053595320437573746F6D6572A3
:104130002053657269616C204E756D6265723A0D2F
:104140000A000000436F756C64206E6F74207175F7
:1041500065727920666C69722073657269616C2082
:104160006E756D626572212025640D0A00000000E5
:1041700053595320464C49522053657269616C2053
:104180004E756D6265723A0D0A0000002530386C7C
:104190006C580D0A00000000436F756C64206E6F50
:1041A000742071756572792063616D657261207527
:1041B0007074696D65212025640D0A0053595320E0
:1041C00063616D65726120757074696D653A0D0A81
:1041D00000000000256C750D0A000000436F756C2F
:1041E00064206E6F7420717565727920667061202D
:1041F00074656D70212025640D0A00005359532009
:104200006670612074656D702063656C6369757399
:104210003A0D0A0025642E25640D0A0053595320D7
:104220006175782074656D702063656C6369757362
:104230003A0D0A004C6570746F6E2053444B207623
:10424000657273696F6E3A0D0A00000025752E25A0
:10425000752E25750D0A0000436F756C64206E6F16
:1042600074206F70656E204C6570746F6E204932DB
:104270004320706F7274212025640D0A0000000035
:104280004C6570746F6E2049324320636F6D6D61B1
:104290006E6420696E74657266616365206F706517
:1042A0006E65642C206465766963652025303278FC
:1042B0000D0A000080B501F08FF8002002BD00B5A6
:1042C00083B00B46B0F908100022842918BFCA1C1D
:1042D00002A90092019101680269406892B200F05F
:1042E00087FF012814BF0020029803B000BD80B5ED
:1042F00000B9012001F04FF8002002BD80B501F0A7
:10430000BFF9012803D0BDE8014001F0B6BA01BDF4
:104310000248016841F480710160704700700040FC
:104320002DE9FC47054600242868DFF86C63010589
:10433000A14625D5A86E70B1B0F5800F18D0B0F5A4
:10434000000F03D0B0F5400F0AD017E0326842F4F6
:104350008032326005E00021281D00F0A1F90446FA
:104360006CB9F16FA86E21F440010143F16707E0D9
:10437000002105F1200000F019FAF0E70124A14620
:104380002868C10425D5E86EA8B1B0F1807F18D0A7
:10439000B0F1007F03D0B0F1407F04D017E0316866
:1043A00041F4803131609CB9F16FE86E21F04071C9
:1043B0000143F1670DE00021281D00F071F904466A
:1043C000F1E7002105F1200000F0F0F9F7E7012402
:1043D000A146286881032BD5F06CC1004FF000087E
:1043E0000AD4F06C40F08050F0644FF00108F06C9B
:1043F00000F0805000900098DFF8A072386840F418
:1044000080703860FEF796F982463868C10500F181
:104410000E81FEF78FF9A0EB0A000328F5D30324E1
:10442000A146B8F1000F03D0F06C20F08050F0648A
:104430002878C10705D5F26FA86B920840EA82027E
:10444000F2672978880705D5F16FE86B21F00C0138
:104450000143F1672978480705D5F16F286C21F0F1
:1044600030010143F1672978080705D5F16F686CC1
:1044700021F0C0010143F1672978C80605D5F16F25
:10448000A86C21F440710143F1672978880605D5AD
:10449000F16FE86C21F440610143F16729688805F8
:1044A00005D5F16F286E21F440210143F167296899
:1044B000480505D5F16F686E21F440110143F1679D
:1044C0002978480605D5F16F286D21F44051014344
:1044D000F1672978080605D5F16F686D21F4404130
:1044E0000143F1672968C80505D5F16FA86D21F46E
:1044F00040310143F1672968C80207D5DFF8A812E7
:10450000CA68E86D920840EA8202CA602968880495
:1045100021D5F16F286F21F040610143F167286FC9
:10452000B0F1006F0DD1306840F48010306012E0BF
:10453000FEF700F9001B5045C0F09A804FF00309C8
:104540006FE7B0F1806F06D10121281D00F0A8F8B7
:10455000010018BF81462868010318D5F26F686F03
:1045600022F040620243F267686FB0F1006F04D13D
:10457000306840F48010306009E0B0F1806F06D1FF
:104580000121281D00F08CF8010018BF8146286821
:10459000410318D5F26FA86F22F040620243F26720
:1045A000A86FB0F1006F04D1306840F48010306023
:1045B00009E0B0F1806F06D10121281D00F070F8EC
:1045C000010018BF81462868410419D5F26FE86FD1
:1045D00022F040520243F267E86FB0F1805F04D1ED
:1045E0000221281D00F05CF807E0B0F1005F07D160
:1045F000022105F1200000F0D9F8010018BF814622
:104600002868010406D5F26FD5F8800022F08042B8
:104610000243F2672968C80306D5F16FD5F8840014
:1046200021F000410143F1674846BDE8F687002CC0
:104630007FF4F6AEDFF87071386810F440701EBF7A
:1046400005F184014A6890420BD03868396841F41A
:104650008031396020F440703A6822F480323A6048
:104660003860C00708D5FEF765F8044641F2893A7C
:10467000386881077FF55CAF05F184013A684868C6
:1046800022F4407202433A60CBE6DFF81002016880
:1046900041F00401016070470C10024000700040BE
:1046A0002DE9F04107467D4E38680C46F16800253B
:1046B00011F0030F0DD0F16801F00301814237D1F1
:1046C000B0B3F0687968C0F30210401C884213D080
:1046D0002EE0012804D02BD3032823D01ED327E0BB
:1046E0003268910724D5F268796822F0730210438A
:1046F000491E40EA0110F060306820F080603060B0
:10470000FEF718F88046306801013AD5FEF712F836
:10471000A0EB08000328F6D3032542E031684A05E0
:10472000E1D405E031688A03DDD431684A03DAD484
:10473000012536E0012C326909D13B695848024015
:104740005B0842EA01215B1E41EA435108E07B69B4
:10475000544802405B0842EA01215B1E41EA436182
:104760003161306840F080603060FDF7E3FF04465F
:104770003068010111D4FDF7DDFF001B0328F7D3DA
:10478000CAE7B968002CD5D132694748FB680240B6
:1047900042EA012141EAC361E2E73169B8690143B4
:1047A000316177E000000000901002402DE9F041F7
:1047B00007463A4E38680C46F168002511F0030FA1
:1047C0000DD0F16801F00301814237D1B0B3F06838
:1047D0007968C0F30210401C884213D02EE00128F3
:1047E00004D02BD3032823D01ED327E032689107AF
:1047F00024D5F268796822F073021043491E40EA1A
:104800000110F060306820F080503060FDF792FFBA
:104810008046306881002DD5FDF78CFFA0EB0800A5
:104820000328F6D3032535E031684A05E1D405E0D5
:1048300031688A03DDD431684A03DAD4012529E0DE
:104840003B69184802405B0842EA01215B1E41EACD
:1048500043617161306840F080503060FDF76AFF5D
:1048600004463068810011D4FDF764FF001B032863
:10487000F7D3D7E7B9687269002CE1D10A48FB6821
:10488000024042EA012141EAC361E2E771697869C5
:10489000014371612846BDE8F0810000001002402C
:1048A000FF809FFFFF80FFF9FF80FF072DE9F84F92
:1048B0000024724A724BDFF8CC81DFF8CC914FF0C4
:1048C0000F0A07468E4637E0704EB74214BF0826DF
:1048D0000726AE4046EA0C0648F82160C143156839
:1048E00001EA050CDEF80450EE0348BF40EA0C0C68
:1048F000C2F800C0556801EA050CDEF80450AE03AA
:1049000048BF40EA0C0CC2F804C0956801EA050CE7
:10491000DEF80450EE0248BF40EA0C0CC2F808C0B2
:10492000D56801EA050CDEF804108D0248BF40EAA4
:104930000C0CC2F80CC0641CDEF8001031FA04F054
:1049400000F09580012000FA04FC1CEA0100F2D07E
:10495000DEF80410022918BF122910D1E10807EB74
:104960008101A5000E6A05F01C050AFA05FB26EA7E
:104970000B06DEF810B00BFA05F535430D62610049
:1049800003253E689EF804B08D40ED430BF0030B09
:104990002E400BFA01FB4BEA06063E60DEF804608F
:1049A000012E18BF022E03D0112E18BF122E13D1C4
:1049B000BE68DEF80CB02E400BFA01FB4BEA06068F
:1049C000BE607E6826EA0C0CDEF80460C6F30016B2
:1049D000A64046EA0C067E60FE683540DEF80860B8
:1049E00006FA01F12943F960DEF80410C900A2D5E6
:1049F000D9F8001041F00101C9F80010D9F80050B1
:104A000005F001050095A5000099A10858F821605E
:104A100005F00C050AFA05FC26EA0C0CB7F1904FDC
:104A200008BF00263FF455AF9F4208BF01263FF460
:104A300050AF174EB74208BF02263FF44AAF154E9B
:104A4000B74208BF03263FF444AF134EB74208BF36
:104A500004263FF43EAF114EB74208BF05263FF48F
:104A600038AF0F4EB7427FF42FAF062631E7BDE8CF
:104A7000F18F0AB181617047816270470004014083
:104A8000000400480800014060100240001C00487B
:104A900000080048000C00480010004800140048BE
:104AA0000018004802480168491C0160704700BFB7
:104AB0004018002080B58B48816841F00101816079
:104AC000816801F0010100910099026842F0805272
:104AD0000260006800F08050009000980320FDF70D
:104AE00083FE002200216FF00B00FDF78AFE0022FA
:104AF00000216FF00A00FDF784FE002200216FF014
:104B00000900FDF77EFE002200216FF00400FDF792
:104B100078FE002200216FF00300FDF772FE0022F4
:104B20000F216FF00100FDF76CFEBDE80840002288
:104B30000F214FF0FF30FDF764BE81B000686A4975
:104B4000884209D16948026842F4805202600068D4
:104B500000F480500090009801B0704700686449EC
:104B6000884200D0704700B585B04FF44072009283
:104B70001221019101220292032103910422049245
:104B800069465C48FFF792FE5648016841F40011FF
:104B90000160006800F400100090009805B000BDAE
:104BA00000685549884200D0704780B5534886B0A8
:104BB000026842F480520260E021006800F48050F4
:104BC0000090022200980191029200210391032299
:104BD00005210591049201A94FF09040FFF766FE70
:104BE00007B000BD80B586B000684549884217D13E
:104BF0003C48816841F4804181604FF4C061806825
:104C000000F480400590022205983E4800910192F0
:104C1000002102910322072104910392694619E0C1
:104C20003949884218D12F48026842F400320260A4
:104C30000C21006800F400300590022205980091D4
:104C400001920021029103220721049103926946F7
:104C50004FF09040FFF72AFE07B000BD0068B0F1AA
:104C6000A04F00D0704710B586B04FF4E8510191C5
:104C7000022202920021039103220A230492059347
:104C800001A94FF09040FFF711FE4FF40071019120
:104C900000220292039201A94FF09040FFF706FE16
:104CA0001A4C206840F480502060216801F4805143
:104CB00000910098E168C80010D4E16841F080518B
:104CC000E160E06800F0805000900098FDF775FD0D
:104CD000E06820F08050E06006B010BDFDF76DFD8B
:104CE00006B010BD5810024000300240481002408B
:104CF00000540040000400480030014060100240B1
:104D00000038014000180048004400404C100240A8
:104D10000EB418B504460898012817D1A06B20F4EA
:104D20008030A063E168DFF8FC010140E160E168E8
:104D300021F44011E1600F98012803D1E06840F4AC
:104D40008010E060204600F0D8F809E0E06840F00C
:104D50004000E060204600F0D0F84FF48030A063BF
:104D6000002012BC5DF810FB816849084900816091
:104D70000020704780B5C26822F0C0420129C2609D
:104D800005D1C16841F00051C1603220B1E019B9CC
:104D9000C16841F08041F7E7012002BD0EB42DE962
:104DA000F04700F582730521002400261C605E6038
:104DB0009C600C33491EF9D1816B41F40011816371
:104DC000129B5BB9816B21F400118163046844F08C
:104DD00040040460016841F08001016000F56061F9
:104DE0000E6000F500664FF4846137683760326802
:104DF00042F0030232600161DFF82C110A46521EB4
:104E000002D00469A706FAD410220261491E02D01A
:104E10000269D406FAD4002131617161F161089A06
:104E2000002A39D000F510652C464FF67F374FF039
:104E3000904C4FF0006E8A462A68002A06D5002959
:104E400014BFC5F800C0C4F800E001E0C5F800A038
:104E5000C5F810A0AF60491C089A20359142EBD3E9
:104E6000002100F5306842468946D8F80050002DF0
:104E700006D5002914BFC8F800C0C2F800E001E060
:104E8000C8F80090C8F81090491CC8F8087008F1DC
:104E90002008089CA142E8D3316921F48071316176
:104EA000002282616FF0804141618269DFF87C10ED
:104EB00042F01002826182690A4382610E9919B13F
:104EC000816941F008018161012B05D1816941F0BF
:104ED000804141F0040181610020BDE8F0075DF8E8
:104EE00010FB80B500F50060416841F002014160AF
:104EF0000320FFF705F8002002BDDFF82C20114643
:104F0000491E0DD00369002BFAD5016941F001015A
:104F10000161521E04D00169CB07FAD4002070470A
:104F200003207047BFFFBDFF410D030000383C80E8
:104F3000016800F57D70012200238260037088699A
:104F400040F000608861486D40F0805040F0030000
:104F500048650020704701680122C0F80024886B72
:104F600040F40030FFE7886300207047F0B4044647
:104F700000201F252B465D1E2BB105F01F0321FAD3
:104F800003F6F707F6D5130007D0082A11D0102A28
:104F90000CD0182A0FD1072D0DD2236859619968BA
:104FA00021F018010A439A60F0BC7047082DF4D331
:104FB00001E0102DF1D3F0BC0120704738B500247A
:104FC00000B921E012B96FF0040032BD85781DB937
:104FD00000F0B0FC044603E0012D18BF6FF065043B
:104FE000204632BD38B5002400B90DE085782DB9D2
:104FF00041F0010100F00FFD044603E0012D18BF50
:105000006FF06504204632BD6FF0640032BD37B5E5
:105010001C00054610D089B96A4602A900F064FC5C
:1050200001000BD1BDF80810A18025800022A270DC
:105030009DF80010A17101E06FF0670040B203B06D
:1050400030BD11B96FF0040070470320087048703C
:105050000D238B70002070470A0000D104E0042368
:105060004FF40271FFF7AABF6FF0040070470A0007
:1050700000D1F9E710234FF40A71FFF79FBF0A0030
:1050800000D1F1E702234FF40371FFF797BF2DE939
:10509000F8430E0008BF6FF004002FD001236A46CA
:1050A0004FF40471FFF78AFFBDF8009080464A462E
:1050B0004AF2D73042431044800DFCF76FFE04469D
:1050C0004AF2D73C0CFB09F06044800D642707FBD3
:1050D00010990D464846FCF7A5FC264A264BFCF7DE
:1050E000ABFA22462B46FCF76BFE4FF06632234BA1
:1050F000FCF766FE00F0F2FC30604046BDE8F2834B
:105100002DE9F8430E0008BF6FF004002FD00123F3
:105110006A464FF40571FFF751FFBDF800908046D5
:105120004A464AF2D73042431044800DFCF736FE1F
:1051300004464AF2D73C0CFB09F06044800D64271A
:1051400007FB10990D464846FCF76CFC094A0A4BD0
:10515000FCF772FA22462B46FCF732FE4FF066321D
:10516000064BFCF72DFE00F0B9FC30604046BDE870
:10517000F28300007B14AE47E17A843F661271C06F
:105180000A0000D104E0102344F61C01FFF716BF0B
:105190006FF0040070476FF0020002BDFFF722FFBE
:1051A00002BD02B5062900DBF5E702236A4644F694
:1051B0005401F3E702B5042900DBECE702236A4659
:1051C00044F65801EAE704E010F8013B6BB1491CD2
:1051D000521E52B10B7890F800C09C45F4D002D218
:1051E0004FF0FF30704701207047002070470000EB
:1051F0002DE9F047814690460D469A464FEA8800D1
:1052000000F0A0FC060050D0542000F09BFC0400ED
:1052100048D006EB8801089F2663081FC0084FEAA4
:10522000C008002104F134022B781370287880B173
:105230006B785370687860B1AB789370A87840B1A0
:10524000EB78D370E87820B1091D2D1D121D1029AF
:10525000EAD3002084F84300062F099D88BF062763
:1052600004F14406E76237607060C7F10707201D4C
:1052700000F057FD04F1180000F053FD2461A76110
:1052800064620020B060307352464946404600F0E8
:1052900047FA206005B12C60204600F00AF8012092
:1052A000BDE8F087304600F0DBFC4FF0FF30BDE892
:1052B000F08770B5044600F0B6FADFF8DC53E86C0E
:1052C000401CE864A86AC8BBAC62E86C01283DD108
:1052D000DFF8C863304600F017FD06F1140000F057
:1052E00013FD06F1280000F00FFD06F13C0000F070
:1052F0000BFD06F1500000F007FD06F1640000F020
:1053000003FD06F1780000F0FFFC05F1740000F0E9
:10531000FBFC05F18806304600F0F6FC284600F05C
:10532000F3FC05F1140000F0EFFC05F1380000F08B
:10533000EBFC05F17400E8622E6307E0A86D28B964
:10534000E06AA96ACA6A904228BFAC62A86EDFF818
:105350004C33401CA8660122E06A696D824011430B
:10536000696500EB8002211D03EB820000F0DCFC8C
:1053700000F072FAA86D68B1A86AC16AE06A814259
:1053800008D2DFF824234FF080511160BFF34F8F14
:10539000BFF36F8F70BD80B5A0B1DFF8FC22116F35
:1053A00039B1502080F31188BFF34F8FBFF36F8F57
:1053B000FEE7116F491C1167002100F077F900F03A
:1053C00042F840B9DFF8E0124FF080500860BFF3B8
:1053D0004F8FBFF36F8F01BD3EB5DFF834430FF23F
:1053E000383104F19C0001900025009500238022B3
:1053F0000FF21920FFF7FCFE012813D1502080F393
:105400001188BFF34F8FBFF36F8F4FF0FF30E0660F
:105410000121A165256503B0BDE8304000F0A2B9C7
:1054200003B030BD10F1010FFAD1502080F3118884
:10543000BFF34F8FBFF36F8FFEE7DFF8D402016F2A
:10544000491C0167704770B5DFF84C62306F00246B
:10545000002538B9502181F31188BFF34F8FBFF376
:105460006F8FFEE700F0DFF9306F401E3067306F5E
:1054700000283DD1F06CF8B93AE0F068C46804F156
:10548000180000F079FC201D00F076FCE06A716DD8
:10549000DFF88032012282401143716500EB800207
:1054A000211D03EB820000F03FFCE06AB16ACA6A8A
:1054B000904224BF0121316630680028DDD10CB153
:1054C00000F0D1F8F46D3CB100F013F808B1012000
:1054D0003066641EF8D1F565306E48B1DFF8C8114A
:1054E0004FF0805001250860BFF34F8FBFF36F8FDF
:1054F000D6E0F8B5DFF8A071386F0026002852D149
:105500003C6D641C3C6513D1F86A006838B15021C9
:1055100081F31188BFF34F8FBFF36F8FFEE7F86AF7
:10552000396BF9623863786E401C786600F09BF83E
:10553000F86E844228D31DE0281D00F01DFCA86AE7
:1055400018B105F1180000F017FCE86A796DDFF872
:10555000C431012282401143796500EB8002291D8C
:1055600003EB820000F0E0FBE86AB96ACA6A904285
:1055700028BF0126F86A006890B1F86AC168CD6852
:1055800068688442D8D2F866B86ADFF88811C06AC1
:1055900000EB800292008958022907D3012605E01A
:1055A0004FF0FF30EFE7F86D401CF865386E00B142
:1055B00001263046F2BDDFF8E010086F10B101227D
:1055C0000A6670470866DFF8D430486DB0FA80F09C
:1055D000C0F11F0000EB80029200985838B95021AA
:1055E00081F31188BFF34F8FBFF36F8FFEE79818D9
:1055F00000F108034268526842609A4204BF526850
:1056000042604068C2688A62704700002DE9F0413C
:10561000DFF89440DFF88480DFF8F4704FF08055B5
:1056200014E000F000F9386AC668301D00F0A4FBF1
:10563000F86C401EF864786B401E786300F00CF93B
:10564000306B00F00DFB304600F00AFB786B002851
:10565000E7D1D8F800100229F8D32560BFF34F8FA7
:10566000BFF36F8FF2E70C49C86A006810B94FF0BA
:10567000FF3203E0C86AC268D0684268CA667047F1
:10568000DFF88C10886D08B901207047086F08B9E1
:10569000022070470020704700160020A01600204E
:1056A00000F0DAF8284670BD04ED00E0F8B5184DBA
:1056B0002F6D0C46A96A0646081D00F05DFB30B947
:1056C000A86A696DC06A012282409143696516F13A
:1056D000010F08D13CB1A86A011D05F13800BDE8F1
:1056E000F44000F021BBA86AF6194660BE42A86AE1
:1056F00005D2011D286BBDE8F44000F023BB011D5D
:10570000E86A00F01FFBE86E864238BFEE66F1BD26
:1057100000160020A016002049444C45000000005F
:1057200049084900A0F120034FF0807C99611A607C
:10573000C3F81CC06FF002020FF20D01596140F86E
:10574000242D20387047000055494A68502012F136
:10575000010F80F31188BFF34F8FBFF36F8F00D01D
:10576000FEE7FEE73EB54F494F4A0868904207D131
:10577000502181F31188BFF34F8FBFF36F8FFEE786
:1057800008684A4A904207D1502181F31188BFF33B
:105790004F8FBFF36F8FFEE7454A13780193FF24C5
:1057A0001470072315783E4C8DF800509DF80000CA
:1057B000A36000F05000207006E0401EA0609DF83D
:1057C000000040008DF80000A0689DF800301D0624
:1057D000F3D4C0F10703042B07D0502080F31188C5
:1057E000BFF34F8FBFF36F8FFEE7000200F4E0605E
:1057F000A060019810700A6A42F470020A62086A96
:1058000040F07040086200F059F80020606000F03D
:1058100011FB2848016841F04041016000F0FAFAAC
:10582000002003B030BD502080F31188BFF34F8FAC
:10583000BFF36F8F1A494A68521C012A4A600AD185
:105840001D490A68130606D080F31188BFF34F8FF5
:10585000BFF36F8FFEE770471149486838B9502091
:1058600080F31188BFF34F8FBFF36F8FFEE7401EA9
:10587000486008BF80F31188704780B5502080F3DE
:105880001188BFF34F8FBFF36F8FFFF732FE18B150
:1058900009494FF080500860002282F3118801BD51
:1058A0000000002000ED00E071C20F4170C20F4106
:1058B00000E400E034EF00E004ED00E00748084BAE
:1058C000DFF820C00021016081601968A1FB0CC2D3
:1058D000520A521E426007210160704710E000E04A
:1058E0000C000020986E12833EB50446154600F069
:1058F000AFFA18B16FF0650003B030BD2A202870F0
:105900000121009101AB02222A21204600F0A2FAD7
:1059100001000DD0002028700121009101AB02226E
:105920000021204600F096FA010018BF6FF06B00CE
:1059300003B030BD7AB582B006461546012000900E
:1059400001ABB1793088022200F084FA04005FD103
:10595000BDF80400C107F1D40120009003ABB17978
:105960003088062200F083FA040051D10120009013
:1059700002ABB1793088042200F079FA040047D1F3
:105980000120009001ABB1793088022200F062FA68
:1059900004003DD1BDF80400C107F1D4000A1FBFC7
:1059A00040F47F4001B2002940B232D1BDF80C0072
:1059B000112803DA00902B46082207E040F201414B
:1059C00088420ADA00902B464FF47842B179308849
:1059D00000F040FA044620001AD1BDF80C00B8B11E
:1059E000012100910DF10603B1793088282200F0E1
:1059F00031FA0446BDF80C00294600F045FA01468C
:105A0000BDF8060000281CBF88426FF0030000D1DB
:105A1000204604B070BD7AB582B0054614464FF4F6
:105A20007A760120009001ABA9792888022200F043
:105A300011FA010050D13046461E80B200283CD0F9
:105A4000BDF80400C107ECD4BDF80C00112838DA09
:105A5000009023460822A979288800F008FA01005E
:105A60003AD10120009003ABA9792888062200F0E2
:105A7000FEF9010030D10120009002ABA9792888FD
:105A8000042200F0F4F9010026D10120009001ABBE
:105A9000A9792888022200F0DDF901001CD1BDF8A7
:105AA0000410CA07F1D4090A1EBF41F47F410AB2AB
:105AB000002A11D048B204B070BD6FF06C0004B081
:105AC00070BD40F20141884204DA009023464FF451
:105AD0007842C0E76FF0020004B070BD01F00042F0
